{
  "contractName": "McCoyContract",
  "abi": [
    {
      "constant": true,
      "inputs": [
        {
          "name": "interfaceId",
          "type": "bytes4"
        }
      ],
      "name": "supportsInterface",
      "outputs": [
        {
          "name": "",
          "type": "bool"
        }
      ],
      "payable": false,
      "stateMutability": "view",
      "type": "function"
    },
    {
      "constant": true,
      "inputs": [],
      "name": "name",
      "outputs": [
        {
          "name": "",
          "type": "string"
        }
      ],
      "payable": false,
      "stateMutability": "view",
      "type": "function"
    },
    {
      "constant": true,
      "inputs": [
        {
          "name": "tokenId",
          "type": "uint256"
        }
      ],
      "name": "getApproved",
      "outputs": [
        {
          "name": "",
          "type": "address"
        }
      ],
      "payable": false,
      "stateMutability": "view",
      "type": "function"
    },
    {
      "constant": false,
      "inputs": [
        {
          "name": "to",
          "type": "address"
        },
        {
          "name": "tokenId",
          "type": "uint256"
        }
      ],
      "name": "approve",
      "outputs": [],
      "payable": false,
      "stateMutability": "nonpayable",
      "type": "function"
    },
    {
      "constant": true,
      "inputs": [],
      "name": "totalSupply",
      "outputs": [
        {
          "name": "",
          "type": "uint256"
        }
      ],
      "payable": false,
      "stateMutability": "view",
      "type": "function"
    },
    {
      "constant": false,
      "inputs": [
        {
          "name": "from",
          "type": "address"
        },
        {
          "name": "to",
          "type": "address"
        },
        {
          "name": "tokenId",
          "type": "uint256"
        }
      ],
      "name": "transferFrom",
      "outputs": [],
      "payable": false,
      "stateMutability": "nonpayable",
      "type": "function"
    },
    {
      "constant": true,
      "inputs": [
        {
          "name": "owner",
          "type": "address"
        },
        {
          "name": "index",
          "type": "uint256"
        }
      ],
      "name": "tokenOfOwnerByIndex",
      "outputs": [
        {
          "name": "",
          "type": "uint256"
        }
      ],
      "payable": false,
      "stateMutability": "view",
      "type": "function"
    },
    {
      "constant": false,
      "inputs": [
        {
          "name": "from",
          "type": "address"
        },
        {
          "name": "to",
          "type": "address"
        },
        {
          "name": "tokenId",
          "type": "uint256"
        }
      ],
      "name": "safeTransferFrom",
      "outputs": [],
      "payable": false,
      "stateMutability": "nonpayable",
      "type": "function"
    },
    {
      "constant": true,
      "inputs": [
        {
          "name": "index",
          "type": "uint256"
        }
      ],
      "name": "tokenByIndex",
      "outputs": [
        {
          "name": "",
          "type": "uint256"
        }
      ],
      "payable": false,
      "stateMutability": "view",
      "type": "function"
    },
    {
      "constant": true,
      "inputs": [
        {
          "name": "tokenId",
          "type": "uint256"
        }
      ],
      "name": "ownerOf",
      "outputs": [
        {
          "name": "",
          "type": "address"
        }
      ],
      "payable": false,
      "stateMutability": "view",
      "type": "function"
    },
    {
      "constant": true,
      "inputs": [
        {
          "name": "owner",
          "type": "address"
        }
      ],
      "name": "balanceOf",
      "outputs": [
        {
          "name": "",
          "type": "uint256"
        }
      ],
      "payable": false,
      "stateMutability": "view",
      "type": "function"
    },
    {
      "constant": false,
      "inputs": [],
      "name": "renounceOwnership",
      "outputs": [],
      "payable": false,
      "stateMutability": "nonpayable",
      "type": "function"
    },
    {
      "constant": true,
      "inputs": [],
      "name": "owner",
      "outputs": [
        {
          "name": "",
          "type": "address"
        }
      ],
      "payable": false,
      "stateMutability": "view",
      "type": "function"
    },
    {
      "constant": true,
      "inputs": [],
      "name": "isOwner",
      "outputs": [
        {
          "name": "",
          "type": "bool"
        }
      ],
      "payable": false,
      "stateMutability": "view",
      "type": "function"
    },
    {
      "constant": true,
      "inputs": [],
      "name": "symbol",
      "outputs": [
        {
          "name": "",
          "type": "string"
        }
      ],
      "payable": false,
      "stateMutability": "view",
      "type": "function"
    },
    {
      "constant": false,
      "inputs": [
        {
          "name": "account",
          "type": "address"
        }
      ],
      "name": "addMinter",
      "outputs": [],
      "payable": false,
      "stateMutability": "nonpayable",
      "type": "function"
    },
    {
      "constant": false,
      "inputs": [],
      "name": "renounceMinter",
      "outputs": [],
      "payable": false,
      "stateMutability": "nonpayable",
      "type": "function"
    },
    {
      "constant": false,
      "inputs": [
        {
          "name": "to",
          "type": "address"
        },
        {
          "name": "approved",
          "type": "bool"
        }
      ],
      "name": "setApprovalForAll",
      "outputs": [],
      "payable": false,
      "stateMutability": "nonpayable",
      "type": "function"
    },
    {
      "constant": true,
      "inputs": [
        {
          "name": "account",
          "type": "address"
        }
      ],
      "name": "isMinter",
      "outputs": [
        {
          "name": "",
          "type": "bool"
        }
      ],
      "payable": false,
      "stateMutability": "view",
      "type": "function"
    },
    {
      "constant": false,
      "inputs": [
        {
          "name": "from",
          "type": "address"
        },
        {
          "name": "to",
          "type": "address"
        },
        {
          "name": "tokenId",
          "type": "uint256"
        },
        {
          "name": "_data",
          "type": "bytes"
        }
      ],
      "name": "safeTransferFrom",
      "outputs": [],
      "payable": false,
      "stateMutability": "nonpayable",
      "type": "function"
    },
    {
      "constant": true,
      "inputs": [
        {
          "name": "tokenId",
          "type": "uint256"
        }
      ],
      "name": "tokenURI",
      "outputs": [
        {
          "name": "",
          "type": "string"
        }
      ],
      "payable": false,
      "stateMutability": "view",
      "type": "function"
    },
    {
      "constant": true,
      "inputs": [
        {
          "name": "owner",
          "type": "address"
        },
        {
          "name": "operator",
          "type": "address"
        }
      ],
      "name": "isApprovedForAll",
      "outputs": [
        {
          "name": "",
          "type": "bool"
        }
      ],
      "payable": false,
      "stateMutability": "view",
      "type": "function"
    },
    {
      "constant": false,
      "inputs": [
        {
          "name": "newOwner",
          "type": "address"
        }
      ],
      "name": "transferOwnership",
      "outputs": [],
      "payable": false,
      "stateMutability": "nonpayable",
      "type": "function"
    },
    {
      "inputs": [],
      "payable": false,
      "stateMutability": "nonpayable",
      "type": "constructor"
    },
    {
      "anonymous": false,
      "inputs": [
        {
          "indexed": true,
          "name": "previousOwner",
          "type": "address"
        },
        {
          "indexed": true,
          "name": "newOwner",
          "type": "address"
        }
      ],
      "name": "OwnershipTransferred",
      "type": "event"
    },
    {
      "anonymous": false,
      "inputs": [
        {
          "indexed": true,
          "name": "account",
          "type": "address"
        }
      ],
      "name": "MinterAdded",
      "type": "event"
    },
    {
      "anonymous": false,
      "inputs": [
        {
          "indexed": true,
          "name": "account",
          "type": "address"
        }
      ],
      "name": "MinterRemoved",
      "type": "event"
    },
    {
      "anonymous": false,
      "inputs": [
        {
          "indexed": true,
          "name": "from",
          "type": "address"
        },
        {
          "indexed": true,
          "name": "to",
          "type": "address"
        },
        {
          "indexed": true,
          "name": "tokenId",
          "type": "uint256"
        }
      ],
      "name": "Transfer",
      "type": "event"
    },
    {
      "anonymous": false,
      "inputs": [
        {
          "indexed": true,
          "name": "owner",
          "type": "address"
        },
        {
          "indexed": true,
          "name": "approved",
          "type": "address"
        },
        {
          "indexed": true,
          "name": "tokenId",
          "type": "uint256"
        }
      ],
      "name": "Approval",
      "type": "event"
    },
    {
      "anonymous": false,
      "inputs": [
        {
          "indexed": true,
          "name": "owner",
          "type": "address"
        },
        {
          "indexed": true,
          "name": "operator",
          "type": "address"
        },
        {
          "indexed": false,
          "name": "approved",
          "type": "bool"
        }
      ],
      "name": "ApprovalForAll",
      "type": "event"
    },
    {
      "constant": false,
      "inputs": [
        {
          "name": "tokenURI",
          "type": "string"
        },
        {
          "name": "mccTokenId",
          "type": "uint256"
        }
      ],
      "name": "createMcCoyToken",
      "outputs": [
        {
          "name": "",
          "type": "bool"
        }
      ],
      "payable": false,
      "stateMutability": "nonpayable",
      "type": "function"
    }
  ],
  "bytecode": "0x60806040523480156200001157600080fd5b50604080518082018252601181527f4d63436f7920446f6e6f7220546f6b656e0000000000000000000000000000006020808301919091528251808401909352600383527f4d4343000000000000000000000000000000000000000000000000000000000090830152908181620000b17f01ffc9a700000000000000000000000000000000000000000000000000000000640100000000620001e9810204565b620000e57f80ac58cd00000000000000000000000000000000000000000000000000000000640100000000620001e9810204565b620001197f780e9d6300000000000000000000000000000000000000000000000000000000640100000000620001e9810204565b81516200012e9060099060208501906200033b565b5080516200014490600a9060208401906200033b565b50620001797f5b5e139f00000000000000000000000000000000000000000000000000000000640100000000620001e9810204565b50505050620001973362000256640100000000026401000000009004565b600d8054600160a060020a031916331790819055604051600160a060020a0391909116906000907f8be0079c531659141344cd1fd0a4f28419497f9722a3daafe3b4186f6b6457e0908290a3620003e0565b7fffffffff0000000000000000000000000000000000000000000000000000000080821614156200021957600080fd5b7fffffffff00000000000000000000000000000000000000000000000000000000166000908152602081905260409020805460ff19166001179055565b62000271600c82640100000000620014ea620002a882021704565b604051600160a060020a038216907f6ae172837ea30b801fbfcdd4108aa1d5bf8ff775444fd70256b44e6bf3dfc3f690600090a250565b600160a060020a0381161515620002be57600080fd5b620002d3828264010000000062000303810204565b15620002de57600080fd5b600160a060020a0316600090815260209190915260409020805460ff19166001179055565b6000600160a060020a03821615156200031b57600080fd5b50600160a060020a03166000908152602091909152604090205460ff1690565b828054600181600116156101000203166002900490600052602060002090601f016020900481019282601f106200037e57805160ff1916838001178555620003ae565b82800160010185558215620003ae579182015b82811115620003ae57825182559160200191906001019062000391565b50620003bc929150620003c0565b5090565b620003dd91905b80821115620003bc5760008155600101620003c7565b90565b61184980620003f06000396000f3fe608060405234801561001057600080fd5b50600436106101b5576000357c0100000000000000000000000000000000000000000000000000000000900480638da5cb5b11610100578063aa271e1a116100a9578063e985e9c511610083578063e985e9c51461060a578063f2fde38b14610645578063fa09c23014610678576101b5565b8063aa271e1a146104e7578063b88d4fde1461051a578063c87b56dd146105ed576101b5565b8063983b2d56116100da578063983b2d561461047157806398650275146104a4578063a22cb465146104ac576101b5565b80638da5cb5b146104595780638f32d59b1461046157806395d89b4114610469576101b5565b80632f745c59116101625780636352211e1161013c5780636352211e1461040157806370a082311461041e578063715018a614610451576101b5565b80632f745c591461036857806342842e0e146103a15780634f6ccce7146103e4576101b5565b8063095ea7b311610193578063095ea7b3146102d057806318160ddd1461030b57806323b872dd14610325576101b5565b806301ffc9a7146101ba57806306fdde031461020d578063081812fc1461028a575b600080fd5b6101f9600480360360208110156101d057600080fd5b50357fffffffff0000000000000000000000000000000000000000000000000000000016610720565b604080519115158252519081900360200190f35b610215610757565b6040805160208082528351818301528351919283929083019185019080838360005b8381101561024f578181015183820152602001610237565b50505050905090810190601f16801561027c5780820380516001836020036101000a031916815260200191505b509250505060405180910390f35b6102a7600480360360208110156102a057600080fd5b50356107ee565b6040805173ffffffffffffffffffffffffffffffffffffffff9092168252519081900360200190f35b610309600480360360408110156102e657600080fd5b5073ffffffffffffffffffffffffffffffffffffffff813516906020013561082d565b005b61031361090a565b60408051918252519081900360200190f35b6103096004803603606081101561033b57600080fd5b5073ffffffffffffffffffffffffffffffffffffffff813581169160208101359091169060400135610910565b6103136004803603604081101561037e57600080fd5b5073ffffffffffffffffffffffffffffffffffffffff8135169060200135610935565b610309600480360360608110156103b757600080fd5b5073ffffffffffffffffffffffffffffffffffffffff81358116916020810135909116906040013561098f565b610313600480360360208110156103fa57600080fd5b50356109ab565b6102a76004803603602081101561041757600080fd5b50356109e0565b6103136004803603602081101561043457600080fd5b503573ffffffffffffffffffffffffffffffffffffffff16610a17565b610309610a69565b6102a7610ae0565b6101f9610afc565b610215610b1a565b6103096004803603602081101561048757600080fd5b503573ffffffffffffffffffffffffffffffffffffffff16610b7b565b610309610b9b565b610309600480360360408110156104c257600080fd5b5073ffffffffffffffffffffffffffffffffffffffff81351690602001351515610ba6565b6101f9600480360360208110156104fd57600080fd5b503573ffffffffffffffffffffffffffffffffffffffff16610c44565b6103096004803603608081101561053057600080fd5b73ffffffffffffffffffffffffffffffffffffffff82358116926020810135909116916040820135919081019060808101606082013564010000000081111561057857600080fd5b82018360208201111561058a57600080fd5b803590602001918460018302840111640100000000831117156105ac57600080fd5b91908080601f016020809104026020016040519081016040528093929190818152602001838380828437600092019190915250929550610c57945050505050565b6102156004803603602081101561060357600080fd5b5035610c7f565b6101f96004803603604081101561062057600080fd5b5073ffffffffffffffffffffffffffffffffffffffff81358116916020013516610d34565b6103096004803603602081101561065b57600080fd5b503573ffffffffffffffffffffffffffffffffffffffff16610d6f565b6101f96004803603604081101561068e57600080fd5b8101906020810181356401000000008111156106a957600080fd5b8201836020820111156106bb57600080fd5b803590602001918460018302840111640100000000831117156106dd57600080fd5b91908080601f0160208091040260200160405190810160405280939291908181526020018383808284376000920191909152509295505091359250610d8b915050565b7fffffffff000000000000000000000000000000000000000000000000000000001660009081526020819052604090205460ff1690565b60098054604080516020601f60026000196101006001881615020190951694909404938401819004810282018101909252828152606093909290918301828280156107e35780601f106107b8576101008083540402835291602001916107e3565b820191906000526020600020905b8154815290600101906020018083116107c657829003601f168201915b505050505090505b90565b60006107f982610dbd565b151561080457600080fd5b5060009081526002602052604090205473ffffffffffffffffffffffffffffffffffffffff1690565b6000610838826109e0565b905073ffffffffffffffffffffffffffffffffffffffff838116908216141561086057600080fd5b3373ffffffffffffffffffffffffffffffffffffffff8216148061088957506108898133610d34565b151561089457600080fd5b600082815260026020526040808220805473ffffffffffffffffffffffffffffffffffffffff191673ffffffffffffffffffffffffffffffffffffffff87811691821790925591518593918516917f8c5be1e5ebec7d5bd14f71427d1e84f3dd0314c0f7b2291e5b200ac8c7c3b92591a4505050565b60075490565b61091a3382610de7565b151561092557600080fd5b610930838383610e7a565b505050565b600061094083610a17565b821061094b57600080fd5b73ffffffffffffffffffffffffffffffffffffffff8316600090815260056020526040902080548390811061097c57fe5b9060005260206000200154905092915050565b6109308383836020604051908101604052806000815250610c57565b60006109b561090a565b82106109c057600080fd5b60078054839081106109ce57fe5b90600052602060002001549050919050565b60008181526001602052604081205473ffffffffffffffffffffffffffffffffffffffff16801515610a1157600080fd5b92915050565b600073ffffffffffffffffffffffffffffffffffffffff82161515610a3b57600080fd5b73ffffffffffffffffffffffffffffffffffffffff82166000908152600360205260409020610a1190610e99565b610a71610afc565b1515610a7c57600080fd5b600d5460405160009173ffffffffffffffffffffffffffffffffffffffff16907f8be0079c531659141344cd1fd0a4f28419497f9722a3daafe3b4186f6b6457e0908390a3600d805473ffffffffffffffffffffffffffffffffffffffff19169055565b600d5473ffffffffffffffffffffffffffffffffffffffff1690565b600d5473ffffffffffffffffffffffffffffffffffffffff16331490565b600a8054604080516020601f60026000196101006001881615020190951694909404938401819004810282018101909252828152606093909290918301828280156107e35780601f106107b8576101008083540402835291602001916107e3565b610b8433610c44565b1515610b8f57600080fd5b610b9881610e9d565b50565b610ba433610ef2565b565b73ffffffffffffffffffffffffffffffffffffffff8216331415610bc957600080fd5b33600081815260046020908152604080832073ffffffffffffffffffffffffffffffffffffffff871680855290835292819020805460ff1916861515908117909155815190815290519293927f17307eab39ab6107e8899845ad3d59bd9653f200f220920489ca2b5937696c31929181900390910190a35050565b6000610a11600c8363ffffffff610f4716565b610c62848484610910565b610c6e84848484610f98565b1515610c7957600080fd5b50505050565b6060610c8a82610dbd565b1515610c9557600080fd5b6000828152600b602090815260409182902080548351601f600260001961010060018616150201909316929092049182018490048402810184019094528084529091830182828015610d285780601f10610cfd57610100808354040283529160200191610d28565b820191906000526020600020905b815481529060010190602001808311610d0b57829003601f168201915b50505050509050919050565b73ffffffffffffffffffffffffffffffffffffffff918216600090815260046020908152604080832093909416825291909152205460ff1690565b610d77610afc565b1515610d8257600080fd5b610b9881611131565b6000610d95610afc565b1515610da057600080fd5b610daa33836111d6565b610db482846111f7565b50600192915050565b60009081526001602052604090205473ffffffffffffffffffffffffffffffffffffffff16151590565b600080610df3836109e0565b90508073ffffffffffffffffffffffffffffffffffffffff168473ffffffffffffffffffffffffffffffffffffffff161480610e6257508373ffffffffffffffffffffffffffffffffffffffff16610e4a846107ee565b73ffffffffffffffffffffffffffffffffffffffff16145b80610e725750610e728185610d34565b949350505050565b610e8583838361122a565b610e8f8382611367565b610930828261149f565b5490565b610eae600c8263ffffffff6114ea16565b60405173ffffffffffffffffffffffffffffffffffffffff8216907f6ae172837ea30b801fbfcdd4108aa1d5bf8ff775444fd70256b44e6bf3dfc3f690600090a250565b610f03600c8263ffffffff61155216565b60405173ffffffffffffffffffffffffffffffffffffffff8216907fe94479a9f7e1952cc78f2d6baab678adc1b772d936c6583def489e524cb6669290600090a250565b600073ffffffffffffffffffffffffffffffffffffffff82161515610f6b57600080fd5b5073ffffffffffffffffffffffffffffffffffffffff166000908152602091909152604090205460ff1690565b6000610fb98473ffffffffffffffffffffffffffffffffffffffff166115b8565b1515610fc757506001610e72565b6040517f150b7a02000000000000000000000000000000000000000000000000000000008152336004820181815273ffffffffffffffffffffffffffffffffffffffff888116602485015260448401879052608060648501908152865160848601528651600095928a169463150b7a029490938c938b938b939260a4019060208501908083838e5b8381101561106757818101518382015260200161104f565b50505050905090810190601f1680156110945780820380516001836020036101000a031916815260200191505b5095505050505050602060405180830381600087803b1580156110b657600080fd5b505af11580156110ca573d6000803e3d6000fd5b505050506040513d60208110156110e057600080fd5b50517fffffffff00000000000000000000000000000000000000000000000000000000167f150b7a020000000000000000000000000000000000000000000000000000000014915050949350505050565b73ffffffffffffffffffffffffffffffffffffffff8116151561115357600080fd5b600d5460405173ffffffffffffffffffffffffffffffffffffffff8084169216907f8be0079c531659141344cd1fd0a4f28419497f9722a3daafe3b4186f6b6457e090600090a3600d805473ffffffffffffffffffffffffffffffffffffffff191673ffffffffffffffffffffffffffffffffffffffff92909216919091179055565b6111e082826115c0565b6111ea828261149f565b6111f381611697565b5050565b61120082610dbd565b151561120b57600080fd5b6000828152600b60209081526040909120825161093092840190611765565b8273ffffffffffffffffffffffffffffffffffffffff1661124a826109e0565b73ffffffffffffffffffffffffffffffffffffffff161461126a57600080fd5b73ffffffffffffffffffffffffffffffffffffffff8216151561128c57600080fd5b611295816116db565b73ffffffffffffffffffffffffffffffffffffffff831660009081526003602052604090206112c390611730565b73ffffffffffffffffffffffffffffffffffffffff821660009081526003602052604090206112f190611747565b600081815260016020526040808220805473ffffffffffffffffffffffffffffffffffffffff191673ffffffffffffffffffffffffffffffffffffffff86811691821790925591518493918716917fddf252ad1be2c89b69c2b068fc378daa952ba7f163c4a11628f55a4df523b3ef91a4505050565b73ffffffffffffffffffffffffffffffffffffffff821660009081526005602052604081205461139e90600163ffffffff61175016565b6000838152600660205260409020549091508082146114625773ffffffffffffffffffffffffffffffffffffffff841660009081526005602052604081208054849081106113e857fe5b9060005260206000200154905080600560008773ffffffffffffffffffffffffffffffffffffffff1673ffffffffffffffffffffffffffffffffffffffff1681526020019081526020016000208381548110151561144257fe5b600091825260208083209091019290925591825260069052604090208190555b73ffffffffffffffffffffffffffffffffffffffff841660009081526005602052604090208054906114989060001983016117e3565b5050505050565b73ffffffffffffffffffffffffffffffffffffffff90911660009081526005602081815260408084208054868652600684529185208290559282526001810183559183529091200155565b73ffffffffffffffffffffffffffffffffffffffff8116151561150c57600080fd5b6115168282610f47565b1561152057600080fd5b73ffffffffffffffffffffffffffffffffffffffff16600090815260209190915260409020805460ff19166001179055565b73ffffffffffffffffffffffffffffffffffffffff8116151561157457600080fd5b61157e8282610f47565b151561158957600080fd5b73ffffffffffffffffffffffffffffffffffffffff16600090815260209190915260409020805460ff19169055565b6000903b1190565b73ffffffffffffffffffffffffffffffffffffffff821615156115e257600080fd5b6115eb81610dbd565b156115f557600080fd5b6000818152600160209081526040808320805473ffffffffffffffffffffffffffffffffffffffff191673ffffffffffffffffffffffffffffffffffffffff871690811790915583526003909152902061164e90611747565b604051819073ffffffffffffffffffffffffffffffffffffffff8416906000907fddf252ad1be2c89b69c2b068fc378daa952ba7f163c4a11628f55a4df523b3ef908290a45050565b600780546000838152600860205260408120829055600182018355919091527fa66cc928b5edb82af9bd49922954155ab7b0942694bea4ce44661d9a8736c6880155565b60008181526002602052604090205473ffffffffffffffffffffffffffffffffffffffff1615610b98576000908152600260205260409020805473ffffffffffffffffffffffffffffffffffffffff19169055565b805461174390600163ffffffff61175016565b9055565b80546001019055565b60008282111561175f57600080fd5b50900390565b828054600181600116156101000203166002900490600052602060002090601f016020900481019282601f106117a657805160ff19168380011785556117d3565b828001600101855582156117d3579182015b828111156117d35782518255916020019190600101906117b8565b506117df929150611803565b5090565b815481835581811115610930576000838152602090206109309181019083015b6107eb91905b808211156117df576000815560010161180956fea165627a7a72305820c580da92fa7a568e6969968e596e684d041da78b26ba91457b2d4b0a37187a6d0029",
  "source": "pragma solidity ^0.5.2;\n\nimport \"openzeppelin-solidity/contracts/token/ERC721/ERC721Full.sol\";\nimport \"openzeppelin-solidity/contracts/access/roles/MinterRole.sol\";\nimport \"openzeppelin-solidity/contracts/ownership/Ownable.sol\";\n\ncontract McCoyContract is ERC721Full,MinterRole, Ownable {\n     //implement Counters. ..getting error\n    //using Counter for Counter.Counter;\n   \n    constructor() public\n        // string memory name,\n        // string memory symbol    \n        ERC721Full(\"McCoy Donor Token\", \"MCC\")\n        { }\n\n           function createMcCoyToken(\n                string memory tokenURI, uint256 mccTokenId\n            )\n                public onlyOwner\n                returns (bool)\n            {\n                \n                _mint(msg.sender, mccTokenId);\n                _setTokenURI(mccTokenId, tokenURI);\n                return true;\n            }\n        \n}",
  "sourcePath": "/Users/michaelchan/Desktop/whitney-mccoy-openlaw/contracts/McCoy.sol",
  "compiler": {
    "name": "solc",
    "version": "0.5.2+commit.1df8f40c.Emscripten.clang"
  },
  "schemaVersion": "3.0.1",
  "updatedAt": "2019-03-26T17:01:53.548Z",
  "devdoc": {
    "methods": {
      "approve(address,uint256)": {
        "details": "Approves another address to transfer the given token ID The zero address indicates there is no approved address. There can only be one approved address per token at a given time. Can only be called by the token owner or an approved operator.",
        "params": {
          "to": "address to be approved for the given token ID",
          "tokenId": "uint256 ID of the token to be approved"
        }
      },
      "balanceOf(address)": {
        "details": "Gets the balance of the specified address",
        "params": {
          "owner": "address to query the balance of"
        },
        "return": "uint256 representing the amount owned by the passed address"
      },
      "getApproved(uint256)": {
        "details": "Gets the approved address for a token ID, or zero if no address set Reverts if the token ID does not exist.",
        "params": {
          "tokenId": "uint256 ID of the token to query the approval of"
        },
        "return": "address currently approved for the given token ID"
      },
      "isApprovedForAll(address,address)": {
        "details": "Tells whether an operator is approved by a given owner",
        "params": {
          "operator": "operator address which you want to query the approval of",
          "owner": "owner address which you want to query the approval of"
        },
        "return": "bool whether the given operator is approved by the given owner"
      },
      "isOwner()": {
        "return": "true if `msg.sender` is the owner of the contract."
      },
      "name()": {
        "details": "Gets the token name",
        "return": "string representing the token name"
      },
      "owner()": {
        "return": "the address of the owner."
      },
      "ownerOf(uint256)": {
        "details": "Gets the owner of the specified token ID",
        "params": {
          "tokenId": "uint256 ID of the token to query the owner of"
        },
        "return": "address currently marked as the owner of the given token ID"
      },
      "renounceOwnership()": {
        "details": "Allows the current owner to relinquish control of the contract. It will not be possible to call the functions with the `onlyOwner` modifier anymore."
      },
      "safeTransferFrom(address,address,uint256)": {
        "details": "Safely transfers the ownership of a given token ID to another address If the target address is a contract, it must implement `onERC721Received`, which is called upon a safe transfer, and return the magic value `bytes4(keccak256(\"onERC721Received(address,address,uint256,bytes)\"))`; otherwise, the transfer is reverted. Requires the msg.sender to be the owner, approved, or operator",
        "params": {
          "from": "current owner of the token",
          "to": "address to receive the ownership of the given token ID",
          "tokenId": "uint256 ID of the token to be transferred"
        }
      },
      "safeTransferFrom(address,address,uint256,bytes)": {
        "details": "Safely transfers the ownership of a given token ID to another address If the target address is a contract, it must implement `onERC721Received`, which is called upon a safe transfer, and return the magic value `bytes4(keccak256(\"onERC721Received(address,address,uint256,bytes)\"))`; otherwise, the transfer is reverted. Requires the msg.sender to be the owner, approved, or operator",
        "params": {
          "_data": "bytes data to send along with a safe transfer check",
          "from": "current owner of the token",
          "to": "address to receive the ownership of the given token ID",
          "tokenId": "uint256 ID of the token to be transferred"
        }
      },
      "setApprovalForAll(address,bool)": {
        "details": "Sets or unsets the approval of a given operator An operator is allowed to transfer all tokens of the sender on their behalf",
        "params": {
          "approved": "representing the status of the approval to be set",
          "to": "operator address to set the approval"
        }
      },
      "supportsInterface(bytes4)": {
        "details": "implement supportsInterface(bytes4) using a lookup table"
      },
      "symbol()": {
        "details": "Gets the token symbol",
        "return": "string representing the token symbol"
      },
      "tokenByIndex(uint256)": {
        "details": "Gets the token ID at a given index of all the tokens in this contract Reverts if the index is greater or equal to the total number of tokens",
        "params": {
          "index": "uint256 representing the index to be accessed of the tokens list"
        },
        "return": "uint256 token ID at the given index of the tokens list"
      },
      "tokenOfOwnerByIndex(address,uint256)": {
        "details": "Gets the token ID at a given index of the tokens list of the requested owner",
        "params": {
          "index": "uint256 representing the index to be accessed of the requested tokens list",
          "owner": "address owning the tokens list to be accessed"
        },
        "return": "uint256 token ID at the given index of the tokens list owned by the requested address"
      },
      "tokenURI(uint256)": {
        "details": "Returns an URI for a given token ID Throws if the token ID does not exist. May return an empty string.",
        "params": {
          "tokenId": "uint256 ID of the token to query"
        }
      },
      "totalSupply()": {
        "details": "Gets the total amount of tokens stored by the contract",
        "return": "uint256 representing the total amount of tokens"
      },
      "transferFrom(address,address,uint256)": {
        "details": "Transfers the ownership of a given token ID to another address Usage of this method is discouraged, use `safeTransferFrom` whenever possible Requires the msg.sender to be the owner, approved, or operator",
        "params": {
          "from": "current owner of the token",
          "to": "address to receive the ownership of the given token ID",
          "tokenId": "uint256 ID of the token to be transferred"
        }
      },
      "transferOwnership(address)": {
        "details": "Allows the current owner to transfer control of the contract to a newOwner.",
        "params": {
          "newOwner": "The address to transfer ownership to."
        }
      }
    }
  },
  "userdoc": {
    "methods": {
      "renounceOwnership()": {
        "notice": "Renouncing ownership will leave the contract without an owner, thereby removing any functionality that is only available to the owner."
      }
    }
  }
}